:020000040800F2
:1000000000800120295F00082D1700082F17000825
:1000100031170008331700083517000800000000EA
:10002000000000000000000000000000371700087A
:1000300039170008000000003B1700083D170008B2
:10004000795F0008795F0008795F0008795F000830
:10005000795F0008795F0008795F0008795F000820
:10006000795F0008795F0008795F0008795F000810
:10007000795F0008795F0008795F0008795F000800
:10008000795F0008795F0008795F000800000000D0
:10009000000000000000000000000000795F000880
:1000A000795F000841170008795F0008795F000850
:1000B000795F0008795F0008795F0008795F0008C0
:1000C000795F0008795F0008795F0008795F0008B0
:1000D000795F0008795F0008795F00080000000080
:1000E000795F0008795F0008795F00080000000070
:1000F000000000000000000000000000795F000820
:1001000000000000795F0008795F0008795F00084F
:1001100000000000000000000000000000000000DF
:10012000795F0008795F0008795F0008795F00084F
:10013000795F0008000000000000000000000000DF
:100140000000000000000000000000001D17000873
:10015000795F0008795F0008795F0008795F00081F
:10016000795F0008795F00080000000000000000CF
:10017000000000000000000000000000000000007F
:1001800000000000795F000800000000000000008F
:04019000795F00088B
:1001C000044B05481B1A062B02D9044B03B11847F0
:1001D000704700BF5F0100205C01002000000000AC
:1001E00005490648091A891001EBD171491002D05E
:1001F000034B03B1184770475C0100205C010020ED
:100200000000000010B5064C237843B9FFF7D8FF73
:10021000044B13B10448AFF300800123237010BDD9
:100220005C010020000000007C5F000808B5084B5E
:100230001BB108490848AFF300800848036813B9A8
:10024000BDE80840CCE7064B002BF9D09847F7E70C
:1002500000000000600100207C5F00085C010020BD
:100260000000000070B50F4E0F4D761BB61018BF82
:10027000002405D0013455F8043B9847A642F9D133
:100280000A4E0B4D761B05F079FEB61018BF002400
:1002900006D0013455F8043B9847A642F9D170BD09
:1002A00070BD00BF34680008346800083868000872
:1002B00034680008844641EA000313F003036DD15B
:1002C000403A41D351F8043B40F8043B51F8043B19
:1002D00040F8043B51F8043B40F8043B51F8043B20
:1002E00040F8043B51F8043B40F8043B51F8043B10
:1002F00040F8043B51F8043B40F8043B51F8043B00
:1003000040F8043B51F8043B40F8043B51F8043BEF
:1003100040F8043B51F8043B40F8043B51F8043BDF
:1003200040F8043B51F8043B40F8043B51F8043BCF
:1003300040F8043B51F8043B40F8043B51F8043BBF
:1003400040F8043B403ABDD2303211D351F8043B5F
:1003500040F8043B51F8043B40F8043B51F8043B9F
:1003600040F8043B51F8043B40F8043B103AEDD20E
:100370000C3205D351F8043B40F8043B043AF9D25F
:10038000043208D0D2071CBF11F8013B00F8013B32
:1003900001D30B8803806046704700BF082A13D33F
:1003A0008B078DD010F003038AD0C3F10403D21A57
:1003B000DB071CBF11F8013B00F8013B80D331F88B
:1003C000023B20F8023B7BE7043AD9D3013A11F80B
:1003D000013B00F8013BF9D20B7803704B78437076
:1003E0008B7883706046704770B4860746D0541E81
:1003F000002A41D0CAB2034602E014F1FF343BD3D5
:1004000003F8012B9D07F8D1032C2ED9CDB245EA74
:1004100005250F2C45EA054519D903F1100226469A
:10042000103E0F2E42F8105C42F80C5C42F8085C5B
:1004300042F8045C02F11002F2D8A4F1100222F09A
:100440000F0204F00F041032032C13440DD91E4682
:100450002246043A032A46F8045BFAD8221F22F007
:1004600003020432134404F003042CB1C9B21C4447
:1004700003F8011B9C42FBD170BC70471446034635
:10048000C2E700BF0CB4F0B59DB022AC029154F8A5
:10049000042B069123466FF000454FF402774FF688
:1004A000FF7602A90194ADF8147004950795ADF894
:1004B000166000F093F9029B00221A701DB0BDE88F
:1004C000F04002B0704700BF0EB4F0B59CB021AB55
:1004D0000F4953F8042B019305466FF00044086858
:1004E00002954FF402774FF6FF7602A90695ADF814
:1004F000147004940794ADF8166000F06FF9029B35
:1005000000221A701CB0BDE8F04003B0704700BF75
:1005100000000020000000000000000000000000BB
:1005200000000000000000000000000000000000CB
:1005300000000000000000000000000000000000BB
:1005400090F800F06DE9024520F007016FF0000C13
:1005500010F0070491F820F040F049804FF00004BB
:100560006FF00700D1E9002391F840F000F1080096
:1005700082FA4CF2A4FA8CF283FA4CF3A2FA8CF3CE
:100580004BBBD1E9022382FA4CF200F10800A4FA35
:100590008CF283FA4CF3A2FA8CF3E3B9D1E9042389
:1005A00082FA4CF200F10800A4FA8CF283FA4CF3C0
:1005B000A2FA8CF37BB9D1E9062301F1200182FA7A
:1005C0004CF200F10800A4FA8CF283FA4CF3A2FA80
:1005D0008CF3002BC6D0002A04BF04301A4612BA8E
:1005E000B2FA82F2FDE8024500EBD2007047D1E991
:1005F000002304F00305C4F100004FEAC50514F020
:10060000040F91F840F00CFA05F562EA05021CBFF0
:1006100063EA050362464FF00004A9E72DE9F047BD
:100620008E689E420C461D46174628D8804688890B
:1006300010F4906F32D04E692368096906EB4606C4
:10064000A3EB010906EBD6766B1C76104B44B34244
:10065000324684BF1E463246430522D511464046E7
:1006600000F0BAFC824680B34A462169FFF722FEB9
:10067000A38923F4906343F08003A38116E0086804
:100680001E462A46394600F0FBFBA2682368961BEB
:100690002B44A66023600020BDE8F087086835463B
:1006A000EFE7404600F0F6FC824650B1A6EB0903A6
:1006B0000AEB09006661C4F810A02060A3602E4612
:1006C000DFE72169404600F03FFC0C23C8F800300A
:1006D000A38943F04003A3814FF0FF30BDE8F087CA
:1006E0002DE9F04F936883B09046002B70D082467E
:1006F0000C4617688D68086842E0A38913F4906F70
:100700002ED06569216905EB4505A0EB010B05EBD2
:10071000D5750BF101006D103044A8422A4684BF04
:1007200005462A465B0538D51146504600F054FC74
:1007300000283CD05A4621690190FFF7BBFDA289F1
:10074000019B22F4906242F08002A281A5EB0B0291
:1007500003EB0B00656123612060A2603546B34660
:100760005A46494600F08CFBD8F80830A268206849
:10077000551B58449E1BA5602060C8F808603EB316
:100780007E683B460837002EFAD0AE42D3F8009080
:10079000AB46B2D23546B346E2E7504600F07AFCAB
:1007A00003460028D2D12169504600F0CDFB0C232E
:1007B000CAF80030A389002243F040034FF0FF3015
:1007C000A381C8F80820C8F8042003B0BDE8F08F62
:1007D0000020C8F8040003B0BDE8F08F2DE9F04F09
:1007E00014468A899DB0150689460393824603D52F
:1007F0000B69002B00F0EB8030238DF82A30237832
:100800007C4E0022202109928DF829100127002B0F
:1008100000F08480252B254603D117E0252B00F01E
:10082000878015F8013F002BF8D1B5EB040B75D08C
:1008300022465B4649465046FFF7F0FE01306DD038
:10084000099B2A785B440993002A67D000234FF064
:10085000FF3201350493079306938DF853301A93B2
:10086000059204E0049A07FA03F3134304932978EA
:100870000522304600F0B4FA2C46831B01350028CF
:10088000F0D1049BD90644BF20228DF85320217853
:100890001A0744BF2B228DF853202A296BD0A1F1CF
:1008A0003002092A0BD8079B14F8011F03EB8303BE
:1008B00002EB4303A1F13002092AF5D907932E294F
:1008C00041D04D4D0322284600F08AFA38B1049BEE
:1008D000401B402202FA00F00343013404932178C4
:1008E00046488DF828100622013400F079FA0028D5
:1008F0004BD0434B03B303AB00934A46414B04A98F
:100900005046AFF300808046B8F1FF3F06D0099B08
:10091000434409932378002B7FF47CAFB9F80C3063
:100920005B0654BF09984FF0FF301DB0BDE8F08F53
:10093000B5EB040B8AD07BE7039B073323F0070357
:1009400008330393E3E761782A2904F1010026D0F4
:10095000A1F130020023092A05930446B1D814F806
:10096000011F03EB830302EB4303A1F13002092AC9
:10097000F5D90593A5E7039A11680432002903927B
:100980001FDB07916178013499E703AB00934A4676
:100990001C4B04A9504600F0D1F88046B4E7039BF5
:1009A0001A680592002A03F104030393B8BF4FF0BD
:1009B000FF3204F10203AEBFA178A17805921C4674
:1009C0007FE7494243F0020307910493DAE74021AD
:1009D00000F002FBC9F80000C9F8100018B140236C
:1009E000C9F8143008E70C23CAF800304FF0FF3084
:1009F0009BE700BFF0670008F8670008FC67000885
:100A0000000000001D0600082DE9F0470C46914645
:100A10000A698968DDF820808A42B8BF0A46C9F8A9
:100A2000002094F8431006461F4611B10132C9F860
:100A30000020236899065DD5D9F800200232C9F854
:100A40000020236813F0060F19461DD1E1688A1AA9
:100A5000002AD8BF194617DD04F1190A002505E060
:100A6000E368D9F800209B1AAB420CDD0123524603
:100A700039463046C047013005F10105F0D14FF04D
:100A8000FF30BDE8F087216894F84330003318BF89
:100A900001238A060AD5E1185A1C302081F8430048
:100AA000224494F8451082F84310023304F14302C3
:100AB00039463046C0470130E1D0236803F00603D1
:100AC000042B29D0A36822699342C8BF4FF00009C4
:100AD00030DD9B1A99441A34002501E04D4529D098
:100AE0000123224639463046C047013005F1010551
:100AF000F4D1C4E713F0060F08D1E168D9F800205B
:100B00008A1A002AD8BF1946A6DCBDE794F84330FC
:100B1000003318BF0123C9E7D9F80010E068A368C3
:100B20002269A0EB0109934229EAE979D1DCB9F104
:100B3000000FD0D10020BDE8F08700BF2DE9F043C1
:100B40000C46097E85B06E29064617460C989846D5
:100B500004F1430C55D00FD8632900F01B8100F23B
:100B6000D68000295CD0582940F0E88084F84510F0
:100B70002268DFF860E213E0732900F0FD8000F2E4
:100B800089806F2900F0E480702940F0D7802268C6
:100B900042F0200222607823DFF83CE284F84530FE
:100BA0000368150603F1040100F1FF8055064BBFF1
:100BB0001B881B6801600160D00744BF42F020021F
:100BC0002260002B40F09580226822F020022260F3
:100BD0001021002284F843206068A0600028C0F241
:100BE0008D80226822F004022260002B67D1002849
:100BF00040F08680654608296FD0ACEB0503236181
:100C000011E023681A0600F1D38013F0400F036847
:100C1000626903F1040101601B6814BF1A801A6045
:100C2000002365462361CDF800803B4603AA214698
:100C30003046FFF7E9FE013021D02A4623693946C4
:100C40003046C04701301AD02368E06813F0020F25
:100C5000039B19D0C21A002A16DD04F119090025D8
:100C600004E0E068039BC21AAA420DDD01234A4654
:100C700039463046C047013005F10105F1D14FF04A
:100C8000FF3005B0BDE8F0839842B8BF184605B004
:100C9000BDE8F08375295BD078294FD122687AE7C7
:100CA0006168A1602D200029C3F1000384F843008E
:100CB00021DB22F00402DFF81CE122600A216546F4
:100CC000B3FBF1F201FB123013461EF8002005F8C9
:100CD000012D002BF4D108298FD12368D9078CD599
:100CE000626823699A4288DC302305F8013C013DA3
:100CF00083E710216DE7DFF8DCE00A21002BDED16D
:100D00009EF8003084F8423004F1420573E764290C
:100D100001D0692912D122680368150603F1040184
:100D200052D455064BBFB3F900301B680160016017
:100D3000002BB5DBDFF89CE00A214DE7012384F8A6
:100D40004210236104F14205002384F843306AE72E
:100D500023681A0633D413F0400F036803F104022A
:100D600015BF1B881B68026002606F2914BF0A212F
:100D70000821DFF860E02CE703686268191D016054
:100D80001D680021284600F02BF800B3401B60606E
:100D90002061D9E703681A68191D0123016004F175
:100DA000420584F842202361CEE701601B6803E717
:100DB00003686269191D01601B681A6030E70368E7
:100DC0001A1D02601B68D0E701601B68B0E760680D
:100DD000DEE700BF04680008186800080000000093
:100DE00001F0FF01102A2BDB10F0070F08D010F8DC
:100DF000013B013A8B422DD010F0070F42B3F6D1E0
:100E0000F0B441EA012141EA014122F007047FF0F8
:100E100000070023F0E80256083C85EA010586EA4F
:100E2000010685FA47F5A3FA87F586FA47F6A5FA8B
:100E300087F68EB9EED1F0BC01F0FF0102F0070297
:100E400032B110F8013B013A83EA010313B1F8D142
:100E50000020704701387047002D06BF3546033823
:100E6000073815F0010F07D1013015F4807F02BF5C
:100E7000013015F4C03F0130F0BC0138704700BFAD
:100E80008842F0B50DD98B1898420AD28418002AEE
:100E900051D0224613F8014D02F8014D9942F9D183
:100EA000F0BD0F2A48D941EA00039B0746D100F163
:100EB000100401F11003154653F8106C44F8106C3F
:100EC00053F80C6C44F80C6C53F8086C44F8086C3C
:100ED000103D53F8046C44F8046C0F2D03F110031B
:100EE00004F11004E8D8A2F1100323F00F0302F07C
:100EF0000F0E1033BEF1030F1944034421D91E1FF6
:100F00000D467446043C55F8047B46F8047F032CD8
:100F1000F8D8AEF1040424F003040434214423443B
:100F200002F0030262B1013B0A4411F8014B03F8DD
:100F3000014F8A42F9D1F0BD0346F3E70346F2E7D9
:100F4000F0BD7246EEE700BF91B151F8043C0439A0
:100F5000002BB8BFC9181F4B1A68FAB18A4230B4C7
:100F60000AD908680C18A24226D04A60196030BC21
:100F700070478B4203D81A465368002BF9D1146886
:100F800015198D420DD006D808680C189C4219D04E
:100F90004B605160EBE70C230360E8E74A6019609F
:100FA000704709680C44111999421460DFD10ACBCB
:100FB0000C4453601460DAE7146852684A602044B5
:100FC0000860D3E71C685B684B6020440860516090
:100FD000CDE700BF7801002070B5CC1C24F00304DD
:100FE00008340C2C38BF0C24002C06463BDBA142F5
:100FF00039D8274D296851B10A68121B04D436E04C
:101000001A68121B1AD519464B68002BF8D169686B
:10101000002937D02146304600F064F8431C22D026
:10102000C31C23F00305A84205D0291A304600F05E
:1010300059F8013017D02C602B4604E00B2A0DD94B
:101040001A6013441C6003F10B0020F007001A1D06
:10105000821A02D05142995070BD70BD8B420ED0A1
:101060005A684A60EFE70C233360002070BD0B2AFA
:1010700003D84A680B462A60E5E70B46E0E70A46D4
:101080000B46F8E7304600F02DF86860C2E700BF75
:1010900078010020F8B51446F9B1C2B106460D46F4
:1010A00000F032F8844201D82846F8BD2146304687
:1010B000FFF792FF074670B122462946FFF7FAF87C
:1010C000294630463D46FFF73FFF2846F8BDFFF76B
:1010D0003BFF2546E8E70546E6E71146BDE8F84050
:1010E000FFF77ABF38B5074C002305460846236052
:1010F00000F014F8431C00D038BD2368002BFBD04F
:101100002B6038BDD41E002051F8040C0028A0F13B
:101110000400BCBF0B58C018704700BF044A054903
:101120001368002B08BF0B46184410601846704720
:1011300080010020D81E002053B94AB9002908BFF9
:1011400000281CBF4FF0FF314FF0FF3000F07AB99C
:10115000ADF1080C6DE904CE00F006F8DDF804E00E
:10116000DDE9022304B070472DE9F0478C460D46B7
:101170000446089E002B51D18A4217466DD9B2FA17
:1011800082FEBEF1000F0BD0CEF1200C01FA0EF55D
:1011900020FA0CFC02FA0EF74CEA050C00FA0EF4E9
:1011A0004FEA174A250CBCFBFAF81FFA87F90AFB2D
:1011B00018CC45EA0C4508FB09F3AB420AD9ED19F6
:1011C00008F1FF3280F02381AB4240F22081A8F188
:1011D00002083D44ED1AA4B2B5FBFAF00AFB105523
:1011E00044EA054400FB09F9A14509D9E41900F1D5
:1011F000FF3380F00A81A14540F2078102383C4468
:10120000A4EB090440EA08400021002E61D024FA32
:101210000EF4002334607360BDE8F0878B4207D979
:10122000002E54D0002186E821000846BDE8F08752
:10123000B3FA83F1002940F08E80AB4202D38242A0
:1012400000F2FA80841A65EB03050120AC46002EFB
:101250003FD086E81010BDE8F08712B90127B7FB30
:10126000F2F7B7FA87FEBEF1000F34D1EB1B3A0C50
:101270001FFA87FC0121B3FBF2F8250C02FB18339F
:1012800045EA03450CFB08F3AB4207D9ED1908F119
:10129000FF3002D2AB4200F2D1808046ED1AA3B2F9
:1012A000B5FBF2F002FB105543EA05440CFB00FCD1
:1012B000A44507D9E41900F1FF3302D2A44500F296
:1012C000B8801846A4EB0C0440EA08409DE731467C
:1012D0003046BDE8F087CEF1200405FA0EF307FA98
:1012E0000EF720FA04F83A0C25FA04F448EA030849
:1012F000B4FBF2F14FEA184502FB11441FFA87FCD8
:1013000045EA044501FB0CF3AB4200FA0EF409D99F
:10131000ED1901F1FF3080F08A80AB4240F2878006
:1013200002393D44EB1A1FFA88F5B3FBF2F002FBD9
:10133000103345EA034500FB0CF3AB4207D9ED1926
:1013400000F1FF386FD2AB426DD902383D44EB1A41
:1013500040EA01418FE7C1F1200722FA07F88B40EC
:1013600005FA01F448EA030320FA07FE4FEA134C9A
:10137000FD404EEA040EB5FBFCF94FEA1E440CFB9F
:1013800019551FFA83F844EA054509FB08F4AC42F5
:1013900002FA01F200FA01FA08D9ED1809F1FF305A
:1013A00043D2AC4241D9A9F102091D442D1B1FFAB9
:1013B0008EFEB5FBFCF00CFB10554EEA054400FB1D
:1013C00008F8A04507D9E41800F1FF3529D2A04557
:1013D00027D902381C4440EA0940A4EB0804A0FBCA
:1013E00002894C45C6464D4615D312D056B1BAEBCC
:1013F0000E0364EB050404FA07F7CB401F43CC400F
:10140000376074600021BDE8F0871846F8E6904622
:10141000E0E6C245EAD2B8EB020E69EB03050138FB
:10142000E4E72846D7E7404691E78146BEE7014614
:1014300078E702383C4445E7084608E7A8F1020887
:101440003D442BE7704700BF2DE9F0438BB00024EB
:10145000059406940794089409940094464B1A6BDB
:1014600042F004021A631A6B02F004020092009A1E
:1014700001941A6B42F080021A631A6B02F0800228
:101480000192019A02941A6B42F001021A631A6BDC
:1014900002F001020292029A03941A6B42F00202D5
:1014A0001A631A6B02F002020392039A04941A6BF5
:1014B00042F008021A631B6B03F008030493049BB9
:1014C0002E4E224641F68341304601F0B4F8DFF853
:1014D000B490224640F23371484601F0ACF8DFF890
:1014E000A880224640F23941404601F0A4F8244F3A
:1014F00022460421384601F09EF84FF4005305932C
:101500004FF404130693079405A9304600F0B2FF88
:1015100041F683430593012506950794089405A990
:10152000304600F0A7FF0C2305930694079405A905
:10153000304600F09FFF40F2337305930695079401
:10154000089405A9484600F095FF40F239430593F9
:1015500006950794089405A9404600F08BFF0423E4
:10156000059306950794089405A9384600F082FF74
:101570000BB0BDE8F08300BF003802400008024015
:10158000000C0240000002400004024008B502685E
:10159000034B9A4200D008BD01F0C0F8FBE700BF42
:1015A0000000014072B6FEE708B50A480A4B036026
:1015B0004FF4E133436000238360C36003610C2276
:1015C00042618361C36100F05DFB00B908BDFFF7B4
:1015D000E9FF00BF700900200044004000B595B04D
:1015E0003022002108A8FEF7FFFE00230393049396
:1015F0000593069307930193204A116C41F08051A3
:101600001164126C02F080520192019A02931C4AFA
:10161000136823F4404343F400431360136803F456
:1016200040430293029B012308934FF480330993B4
:1016300002230E934FF480030F9304231093A822E8
:10164000119212930723139308A800F0B9FB80B9F5
:101650000F23039302210491002305934FF480523A
:101660000692079303A800F011FE20B915B05DF8AB
:1016700004FBFFF797FFFFF795FF00BF003802401C
:101680000070004000B58DB001F02EF8FFF7A6FF06
:10169000FFF7DAFEFFF788FF03F014FD01F0DBFC33
:1016A0000BA801F029FC0AA801F0C8FB002001F0FA
:1016B00077FD01F077FB01F042FB09A801F04CFB3C
:1016C00008A801F049FA01F06DFB07A801F078FBCA
:1016D00001F010FB06A801F069FA4FF6FF7001F067
:1016E000EEFC0C4B02AC0FCB84E80F00102102A8DB
:1016F00003F0B4FD4FF47A7001F022F84FF6FF7357
:1017000001931F230093012300221146024801F098
:1017100078FDEBE7B05F00088401002008B50248BF
:1017200002F0E9F808BD00BF24040020FEE7FEE750
:10173000FEE7FEE7FEE7704770477047704700001E
:1017400008B5024800F09CF808BD00BFB8090020A9
:1017500000B583B0002100910C4B5A6C42F48042DA
:101760005A645A6C02F480420092009A01911A6CF9
:1017700042F080521A641B6C03F080530193019B6A
:10178000072000F05FFF03B05DF804FB0038024063
:1017900000B589B000230393049305930693079340
:1017A0000268144B9A4202D009B05DF804FB002194
:1017B000019103F5FA331A6C42F400321A641A6C80
:1017C00002F400320192019A02911A6B42F0010276
:1017D0001A631B6B03F001030293029B0C23039318
:1017E000022304930723079303A9034800F042FE52
:1017F000DAE700BF004400400000024070470000EC
:1018000090F83D30DBB2012B01D00120704702235C
:1018100080F83D300268D36843F00103D360036869
:10182000144A934218D0B3F1804F15D0A2F57C42F0
:10183000934211D002F5806293420DD002F580628E
:10184000934209D002F59A32934205D01A6842F0C9
:1018500001021A60002070479A6802F00702062A07
:1018600005D01A6842F001021A600020704700207B
:10187000704700BF000001407047704770477047D5
:1018800010B5044603681A6912F0020F11D0DA6825
:1018900012F0020F0DD06FF002021A6101230377DC
:1018A00003689B6913F0030F70D0FFF7E6FF002376
:1018B000237723681A6912F0040F12D0DA6812F045
:1018C000040F0ED06FF004021A61022323772368FD
:1018D0009B6913F4407F5FD02046FFF7CEFF0023C3
:1018E000237723681A6912F0080F12D0DA6812F011
:1018F000080F0ED06FF008021A61042323772368C3
:10190000DB6913F0030F4ED02046FFF7B6FF00232C
:10191000237723681A6912F0100F12D0DA6812F0D8
:10192000100F0ED06FF010021A610823237723687E
:10193000DB6913F4407F3DD02046FFF79EFF002374
:10194000237723681A6912F0010F03D0DA6812F0C6
:10195000010F36D123681A6912F0800F03D0DA68BC
:1019600012F0800F34D123681A6912F0400F03D0AF
:10197000DA6812F0400F32D123681A6912F0200F92
:1019800003D0DA6812F0200F30D110BDFFF774FFDA
:101990002046FFF773FF8AE72046FFF76DFF2046DA
:1019A000FFF76CFF9BE72046FFF766FF2046FFF737
:1019B00065FFACE72046FFF75FFF2046FFF75EFFBD
:1019C000BDE76FF001021A612046FFF7DFFDC1E7B6
:1019D0006FF080021A61204600F08AF8C3E76FF0CA
:1019E00040021A612046FFF74AFFC5E76FF0200268
:1019F0001A61204600F07BF8C7E700000368254A1B
:101A000090420ED0B0F1804F0BD0A2F57C429042B4
:101A100007D002F58062904203D002F580629042C6
:101A200003D123F070034A6813431A4A90421AD034
:101A3000B0F1804F17D0A2F57C42904213D002F54E
:101A4000806290420FD002F5806290420BD002F586
:101A50009A32904207D002F58062904203D002F59C
:101A60008062904203D123F44073CA68134323F089
:101A700080034A69134303608B68C3620B68836207
:101A8000044B984202D00123436170470B69036302
:101A9000F9E700BF0000014038B310B5044690F8E4
:101AA0003D30EBB1022384F83D30211D2068FFF763
:101AB000A5FF012384F8463084F83E3084F83F3097
:101AC00084F8403084F8413084F8423084F8433060
:101AD00084F8443084F8453084F83D30002010BD4F
:101AE00080F83C30FFF78AFEDCE701207047704742
:101AF00070470000F8B504460268136923F44053A8
:101B0000C1680B431361836802691343426913433D
:101B1000C26913430168CA6822F4164222F00C021B
:101B20001343CB600268536923F4407381690B430C
:101B300053610368314A934232D002F58062934286
:101B40002ED000F059FCE369B3F5004F2BD0256887
:101B50000021061841EB010736184F41FB0043EA0C
:101B60005673F20016461F4663689A009B0F801951
:101B70007941FFF7E1FA224CA4FB003251096422BB
:101B800002FB110213013233A4FB03235B0903F0B0
:101B9000F00202EB011203F00F031344AB60F8BD37
:101BA00000F03AFCCFE725680021061841EB010759
:101BB00036184F41FB0043EA5673F20016461F46A3
:101BC0006268002392185B4180197941FFF7B4FAEB
:101BD0000B4CA4FB00325109642202FB1102D3001A
:101BE0003233A4FB03235B095A0002F4F87202EBC0
:101BF000011203F007031344AB60F8BD001001406D
:101C00001F85EB512DE9F04104460F4616469846D4
:101C1000069D23681B6837EA03030CBF01230023DA
:101C2000B3422CD1B5F1FF3FF3D02DB100F082FDCE
:101C3000A0EB08008542ECD2226802F10C0353E8C5
:101C4000003F23F4D0730C3242E800310029F3D175
:101C5000226802F1140353E8003F23F00103143219
:101C600042E800310029F3D1202384F83D3084F884
:101C70003E30002384F83C300320BDE8F081002092
:101C8000BDE8F08158B310B5044690F83D300BB371
:101C9000242384F83D302268D36823F40053D360B2
:101CA0002046FFF727FF2268136923F4904313614E
:101CB0002268536923F02A0353612268D36843F4EE
:101CC0000053D36000202064202384F83D3084F842
:101CD0003E3010BD80F83C30FFF75AFDD8E70120B8
:101CE00070472DE9F04182B01E4690F83D30DBB2DE
:101CF000202B04D00223184602B0BDE8F081044630
:101D00000D469046002954D0002A54D090F83C301B
:101D1000012B01D10223EEE7012380F83C300023A0
:101D20000364212380F83D3000F004FD0746A4F849
:101D30002480A4F82680A368B3F5805F05D04FF017
:101D40000008002384F83C3012E0236913B14FF0FF
:101D50000008F6E7A8460025F3E7226838F8023BBA
:101D6000C3F308035360E38C9BB2013B9BB2E38453
:101D7000E38C9BB273B100963B4600228021204643
:101D8000FFF740FFC8B9002DE7D0236815F8012BF5
:101D90005A60E8E700963B46002240212046FFF7C4
:101DA00031FF034608B10323A5E7202284F83D2034
:101DB000A1E701239FE701239DE703239BE70000A1
:101DC000002800F0E98170B582B00446036813F082
:101DD000010F3BD0A74B9B6803F00C03042B2CD0C6
:101DE000A44B9B6803F00C03082B21D06368B3F568
:101DF000803F4FD0B3F5A02F52D09E4B1A6822F4EB
:101E000080321A601A6822F480221A606368002BFC
:101E100050D000F08FFC0546964B1B6813F4003F32
:101E200014D100F087FC401B6428F5D90320B8E1E9
:101E3000904B5B6813F4800FD8D08E4B1B6813F463
:101E4000003F03D06368002B00F0A881236813F0E3
:101E5000020F55D0874B9B6813F00C0F3ED0854B7B
:101E60009B6803F00C03082B33D0E368002B68D089
:101E70000122814B1A6000F05DFC05467D4B1B681A
:101E800013F0020F54D100F055FC401B0228F5D985
:101E9000032086E1774A136843F480331360B5E783
:101EA000744B1A6842F480221A601A6842F4803235
:101EB0001A60ABE700F03EFC05466E4B1B6813F45E
:101EC000003FC3D000F036FC401B6428F5D9032046
:101ED00067E1684B5B6813F4800FC6D1654B1B68E4
:101EE00013F0020F04D0E368012B01D0012058E168
:101EF000604A136823F0F803216943EAC1031360C1
:101F0000236813F0080F40D0636963B301225B4B71
:101F10001A6000F00FFC0546564B5B6F13F0020F82
:101F200033D100F007FC401B0228F5D9032038E12B
:101F3000504A136823F0F803216943EAC103136090
:101F4000DEE700224C4B1A6000F0F4FB0546494BDB
:101F50001B6813F0020FD3D000F0ECFB401B0228EB
:101F6000F5D903201DE10022444B1A6000F0E2FB8A
:101F70000546404B5B6F13F0020F06D000F0DAFB12
:101F8000401B0228F5D903200BE1236813F0040F4E
:101F900079D0384B1B6C13F0805F33D10023019351
:101FA000344B1A6C42F080521A641B6C03F080535D
:101FB0000193019B0125324B1B6813F4807F23D0D2
:101FC000A368012B34D0052B38D02A4B1A6F22F08E
:101FD00001021A671A6F22F004021A67A368002B25
:101FE00036D000F0A7FB0646224B1B6F13F0020F02
:101FF00048D100F09FFB801B41F288339842F3D90F
:102000000320CEE00025D6E71D4A136843F4807311
:10201000136000F08FFB0646194B1B6813F4807F9A
:10202000CED100F087FB801B0228F5D90320B8E051
:10203000104A136F43F001031367CFE70D4B1A6F7C
:1020400042F004021A671A6F42F001021A67C5E7EC
:1020500000F070FB0646074B1B6F13F0020F11D008
:1020600000F068FB801B41F288339842F3D90320CB
:1020700097E000BF0038024000004742800E474210
:1020800000700040EDB9A369002B00F08980484A38
:10209000926802F00C02082A51D0022B17D00022BD
:1020A000444B1A6000F046FB0446414B1B6813F09A
:1020B000007F42D000F03EFB001B0228F5D9032030
:1020C0006FE03B4A136C23F080531364DBE700227C
:1020D000384B1A6000F02EFB0546354B1B6813F099
:1020E000007F06D000F026FB401B0228F5D9032014
:1020F00057E0E369226A1343626A43EA8213A26AE1
:102100005208013A43EA0243E26A43EA0263284A78
:1021100053600122274B1A6000F00CFB0446244B4D
:102120001B6813F0007F06D100F004FB001B02289F
:10213000F5D9032035E0002033E0002031E0012B09
:1021400031D01B4B5B6803F48001E269914201D0FE
:10215000012026E003F03F02216A8A4201D00120DB
:102160001FE0616A47F6C0721A40B2EB811F01D0CE
:10217000012016E003F44031A26A5208013AB1EBA3
:10218000024F01D001200CE003F07063E26AB3EB70
:10219000026F0AD0012004E001207047012000E016
:1021A000002002B070BD0120FBE70020F9E700BF6E
:1021B0000038024060004742F8B5314B9B6803F09D
:1021C0000C03042B59D0082B01D02E48F8BD2C4B02
:1021D0005A6802F03F025B6813F4800F2AD0284B44
:1021E0005B68C3F388131E4600275C010025E41AD0
:1021F00065EB0705A90141EA9461A001001B61EBB1
:102200000501CB0043EA5073C400A01943EB07015A
:102210004B0243EAD0534402204619460023FEF7FE
:102220008BFF174B5B68C3F3014301335B00B0FBCB
:10223000F3F0F8BD124B5B68C3F388131E4600270A
:102240005C010025E41A65EB0705A90141EA9461E8
:10225000A001001B61EB0501CB0043EA5073C400F1
:10226000A01943EB07018B0243EA905384022046F6
:1022700019460023FEF760FFD3E70348F8BD00BF0F
:10228000003802400024F40000127A00002800F018
:102290009E8070B50446504B1B6803F007038B42C9
:1022A00009D2CBB24C4A1370136803F0070399426A
:1022B00001D0012070BD236813F0020F17D013F076
:1022C000040F04D0454A936843F4E05393602368B5
:1022D00013F0080F04D0414A936843F460439360BD
:1022E0003E4A936823F0F003A068034393600D46D1
:1022F000236813F0010F32D06368012B21D09A1E9E
:10230000012A25D9354A126812F0020F61D03349EB
:102310008A6822F0030213438B6000F00BFA064632
:102320002E4B9B6803F00C036268B3EB820F16D050
:1023300000F000FA801B41F288339842F0D9032064
:1023400070BD264A126812F4003FE0D1012070BD32
:10235000224A126812F0007FD9D1012070BD1E4BB5
:102360001B6803F007039D4209D2EAB21A4B1A70A8
:102370001B6803F007039D4201D0012070BD236854
:1023800013F0040F06D0154A936823F4E053E16874
:102390000B439360236813F0080F07D00F4A93682C
:1023A00023F46043216943EAC1039360FFF704FF0C
:1023B0000A4B9B68C3F30313094AD35CD840094B0B
:1023C0001860094B186800F0D9F9002070BD012091
:1023D0007047012070BD00BF003C02400038024041
:1023E000C05F00086C00002068000020014B1868E6
:1023F000704700BF6C00002008B5FFF7F7FF044BE3
:102400009B68C3F38223034AD35CD84008BD00BF56
:1024100000380240D05F000808B5FFF7E7FF044B23
:102420009B68C3F34233034AD35CD84008BD00BF66
:1024300000380240D05F00080F2303600B4B9A68FE
:1024400002F0030242609A6802F0F00282609A6829
:1024500002F4E052C2609B68DB0803F4E0530361BE
:10246000034B1B6803F007030B6070470038024002
:10247000003C024000230F2B00F2CD80F0B583B06A
:1024800062E085684FEA430E032707FA0EF725EA54
:102490000705CE6806FA0EF635438560456825EADD
:1024A00002024D68C5F300159D402A43426057E083
:1024B000DD08083550F8252003F00706B6000F2781
:1024C000B74022EA07020F6907FA06F6324340F8DE
:1024D000252059E0042700E0002707FA06F63243DA
:1024E00002354D4E46F825204C4A9568E24305EAF0
:1024F00002064F6817F4801F01D044EA0506474DD5
:10250000AE60ED6802EA05064F6817F4001F01D0BF
:1025100044EA0506414DEE606D6802EA05064F6823
:1025200017F4003F01D044EA05063C4D6E602D686B
:102530002A404E6816F4803F01D044EA0502374C29
:10254000226001330F2B64D801229A400C6814409A
:10255000A242F6D14D6805F00305013D012D90D949
:102560004A6802F00302032A09D0C2685F0003260A
:10257000BE4022EA06028D68BD402A43C2604A6816
:1025800002F00302022A93D002685F000326BE40D5
:1025900022EA06024D6805F00305BD402A430260A9
:1025A0004A6812F4403FCCD0002201921C4A556C7C
:1025B00045F480455564526C02F480420192019AC0
:1025C0009D08AE1C144A52F8262003F00306B600FC
:1025D0000F27B74022EA0702124FB8423FF47CAF00
:1025E00007F58067B8420ED007F58067B8420CD077
:1025F00007F58067B8420AD007F58067B8423FF414
:1026000069AF072769E7012767E7022765E703271F
:1026100063E703B0F0BD704700380140003C014063
:1026200000380240000002400369194201D1002035
:1026300070470120704712B90904816170478161B8
:1026400070470000074AD36823F4E0631B041B0CA7
:10265000000200F4E060184340F0BF6040F4003036
:10266000D060704700ED00E030B4164BDB68C3F378
:102670000223C3F10704042C28BF04241D1D062DCA
:1026800017D9033B012505FA04F4013C2140994088
:1026900005FA03F3013B1340194300280BDB090142
:1026A000C9B200F1604000F5614080F8001330BC11
:1026B00070470023E6E700F00F000901C9B2024BA2
:1026C0001954F4E700ED00E014ED00E0002808DB09
:1026D000420900F01F00012303FA00F0014B43F808
:1026E0002200704700E100E008B50B4B1A6842F485
:1026F00000721A601A6842F480621A601A6842F422
:1027000080721A600320FFF79DFF0F2000F036F85B
:10271000FFF71EF8002008BD003C0240034A116884
:10272000034B1B780B441360704700BFB4090020B3
:1027300064000020014B1868704700BFB4090020F6
:1027400038B50446FFF7F6FF0546B4F1FF3F02D067
:10275000044B1B781C44FFF7EDFF401B8442FAD862
:1027600038BD00BF64000020034AD2F8883043F42B
:102770007003C2F88830704700ED00E010B588B0F3
:10278000002201461920FFF76FFF1920FFF79EFF77
:1027900000240194134B5A6C42F001025A645B6CA2
:1027A00003F001030193019B02A903A8FFF744FE74
:1027B000FFF732FE0C4BA3FB00239B0C013B0B48A5
:1027C0000B4A026040F2E732C260436004618460F9
:1027D000FFF762F910B1012008B010BD0348FFF700
:1027E0000FF8F9E70038024083DE1B43B8090020E8
:1027F0000000014008B5012202210248FFF71BFF3B
:1028000008BD00BF0008024008B5002202210248AE
:10281000FFF711FF08BD00BF0008024008B5012204
:1028200011460248FFF707FF08BD00BF0004024041
:1028300008B5002201210248FFF7FDFE08BD00BFD8
:102840000004024008B5012210210248FFF7F3FE00
:1028500008BD00BF0000024008B500221021024858
:10286000FFF7E9FE08BD00BF0000024008B50122E5
:1028700002210248FFF7DFFE08BD00BF0000024052
:1028800010B5064C002202212046FFF7D4FE01229B
:1028900002212046FFF7CFFE10BD00BF000002401E
:1028A00008B5012211460248FFF7C5FE08BD00BF6A
:1028B0000000024008B5002201210248FFF7BBFEDC
:1028C00008BD00BF0000024030B587B04FF4E063A0
:1028D0000193002502950224039401A90A48FFF7F9
:1028E000C9FD4FF4876301930295039401A907483A
:1028F000FFF7C0FD802301930295039401A90448CA
:10290000FFF7B8FD07B030BD0000024000040240F0
:102910000008024030B587B04FF4E0630193012511
:1029200002950024039401A90A48FFF7A3FD4FF480
:10293000876301930295039401A90748FFF79AFD65
:10294000802301930295039401A90448FFF792FDA7
:1029500007B030BD00000240000402400008024001
:1029600070B51E4D4FF480712846FFF75DFEC4011F
:102970001B4E4FF480613046FFF756FE44EA801448
:1029800064B210213046FFF74FFE44EA401464B2AF
:1029900020213046FFF748FE44EA001464B20821C3
:1029A0003046FFF741FE44EAC00464B24FF4806150
:1029B0002846FFF739FE44EA800464B280210948C2
:1029C000FFF732FE44EA400464B24FF40071284637
:1029D000FFF72AFE40B22043C0B270BD00000240A3
:1029E000000402400008024030B41A4B5A6922F435
:1029F000E0625A615C69410001F48072050205F4ED
:102A000080652A43450205F400752A4322435A6132
:102A1000114A536923F4876353615469030103F432
:102A20008063451005F010052B4301F020010B4396
:102A300000F008010B4323435361084B5A6922F00D
:102A400080025A615A69800100F080001043586189
:102A500030BC704700000240000402400008024001
:102A600070B504460D461646FFF7E2FEFFF7F4FE8A
:102A7000FFF716FFFFF74EFF2046FFF7B5FFFFF702
:102A8000FFFEFFF7DFFE002405E0305DFFF7ACFF3F
:102A9000FFF7F6FE0134AC42F7DBFFF7BFFE70BD77
:102AA00070B504460D461646FFF7C2FEFFF7D4FE8A
:102AB000FFF7F6FEFFF72EFF2046FFF795FFFFF723
:102AC000DFFEFFF7BFFEFFF7D1FEFFF7FDFE00249C
:102AD00007E0FFF7EFFEFFF743FF3055FFF7E0FE9B
:102AE0000134AC42F5DBFFF799FE70BD10B504462A
:102AF000FFF79EFEFFF7B0FEFFF7D2FEFFF70AFFDB
:102B00002046FFF771FFFFF7BBFEFFF787FE10BD02
:102B100010B50446FFF78CFEFFF794FEFFF7C0FEEA
:102B2000FFF7F8FE2046FFF75FFFFFF7A9FEFFF76C
:102B300075FE10BD08B5FFF75DFE0120FFF700FE32
:102B4000FFF762FE0120FFF7FBFDFFF753FE0120B8
:102B5000FFF7F6FD08BD000070B592B006460246CC
:102B600002210C20FFF79CFF02AC0E4D0FCD0FC4CD
:102B70000FCD0FC40FCD0FC42B68236002A800F047
:102B800063FB727802F00703009302F0700302F017
:102B90008002054902A8FDF797FC02A800F054FB4B
:102BA00012B070BDD86500080C66000870B590B012
:102BB0000646024602210E20FFF772FF6C46264DA4
:102BC0000FCD0FC40FCD0FC40FCD0FC495E80F006C
:102BD00084E80F00684600F037FB96F90120D20F19
:102BE0001E496846FDF770FC684600F02DFB7278C0
:102BF000C2F380121A496846FDF766FC684600F089
:102C000023FB7278C2F3401216496846FDF75CFC5C
:102C1000684600F019FB7278C2F300121249684648
:102C2000FDF752FC684600F00FFB7278C2F3C00259
:102C30000E496846FDF748FC684600F005FB7278CF
:102C4000C2F380020A496846FDF73EFC684600F080
:102C5000FBFA10B070BD00BFCC6600083C660008EF
:102C6000586600087866000890660008A4660008A8
:102C7000B866000808B5002211461120FFF7F0FEE3
:102C80007820FFF75DFD08BD08B500221146292018
:102C9000FFF7E6FE08BD00B583B0030A8DF80430E7
:102CA0008DF805000B0A8DF806308DF8071001AA83
:102CB00004212A20FFF7D4FE03B05DF804FB00B521
:102CC00083B0030A8DF804308DF805000B0A8DF8E7
:102CD00006308DF8071001AA04212B20FFF7C0FE53
:102CE00003B05DF804FB08B5002211462C20FFF765
:102CF000B7FE08BD00B583B0012102AA02F8041D89
:102D00003520FFF7ADFE03B05DF804FB00B583B0DE
:102D100002AA02F8040D01213620FFF7A1FE03B03C
:102D20005DF804FB00B583B002AA552302F8043D08
:102D300001213A20FFF794FE03B05DF804FB00B5D3
:102D400083B002AA552302F8043D01215120FFF768
:102D500087FE03B05DF804FB70B590B006460246EE
:102D600002215220FFF79CFE6C460C4D0FCD0FC484
:102D70000FCD0FC40FCD0FC495E8070003C4228008
:102D8000684600F061FA727805496846FDF79CFBD9
:102D9000684600F059FA10B070BD00BF7C650008AD
:102DA000B865000800B583B002AA002302F8043D0C
:102DB00001215320FFF754FE03B05DF804FB00002F
:102DC00070B590B00646024602215420FFF768FE17
:102DD0006C46164D0FCD0FC40FCD0FC40FCD0FC4D1
:102DE0002B682360684600F02FFA7278C2F3401215
:102DF0000F496846FDF768FB684600F025FA7278CF
:102E0000C2F3C0020B496846FDF75EFB684600F05E
:102E10001BFA7278C2F3800207496846FDF754FB3B
:102E2000684600F011FA10B070BD00BFD46400080D
:102E300008650008306500085465000870B590B05A
:102E4000064602460221DC20FFF72AFE6C460C4DA6
:102E50000FCD0FC40FCD0FC495E8070003C424F8AD
:102E6000022B120C2270684600F0EEF972780549C8
:102E70006846FDF729FB684600F0E6F910B070BD22
:102E80000C6700083867000800B583B002AA232346
:102E900002F8043D0121C020FFF7E2FD03B05DF818
:102EA00004FB00B583B002AA102302F8043D0121FF
:102EB000C120FFF7D5FD03B05DF804FB00B583B07A
:102EC000054B1B8802AA22F8043D0221C520FFF70A
:102ED000C7FD03B05DF804FB945F000800B583B044
:102EE00002AA862302F8043D0121C720FFF7B8FD9E
:102EF00003B05DF804FB000070B592B006460246D0
:102F00000421D320FFF7CCFD02AC0B4D0FCD0FC435
:102F10000FCD0FC42B68237002A800F095F97278CA
:102F2000B378F1780091054902A8FDF7CDFA02A81F
:102F300000F08AF912B070BD4467000868670008A5
:102F400000B583B0064B93E8030000908DF80410A1
:102F50006A460521CB20FFF783FD03B05DF804FB33
:102F6000985F000800B583B0074BDB68ADF804300C
:102F70001B0C8DF8063001AA0321CF20FFF770FD4E
:102F800003B05DF804FB00BF945F000800B583B098
:102F9000074B1B69ADF804301B0C8DF8063001AAF5
:102FA0000321E820FFF75CFD03B05DF804FB00BFE0
:102FB000945F000800B583B000238DF804308DF8CD
:102FC000053001AA0221EA20FFF74AFD03B05DF8AF
:102FD00004FB00B583B000238DF8043010238DF876
:102FE000053001AA0221B120FFF73AFD03B05DF8D8
:102FF00004FB000000B583B0074B5B69ADF80430FB
:103000001B0C8DF8063001AA0321B620FFF728FD1E
:1030100003B05DF804FB00BF945F000800B583B007
:10302000054B9B6902AA42F8043D0421ED20FFF7FD
:1030300017FD03B05DF804FB945F000800B583B092
:1030400002AA202302F8043D0121F720FFF708FD22
:1030500003B05DF804FB08B5FFF76CFDFFF770FFE8
:10306000FFF780FFFFF792FFFFF7A4FFFFF7D6FF00
:10307000FFF7E4FFFFF708FFFFF713FFFFF71EFF5F
:10308000FFF72CFF0820FFF741FEFFF74BFEFFF78D
:10309000A0FFFFF7AFFFFFF7EDFDFFF7F5FDFFF72F
:1030A00022FE08BD38B50C461D461146FFF7F3FD5C
:1030B00029462046FFF703FEFFF715FE38BD70B521
:1030C000054640F23F13EF2200210846FFF7EAFFD2
:1030D00000260BE0280AFFF71BFDE8B2FFF718FDFA
:1030E0000134A4B2EF2CF5D90136B6B2B6F5A07F03
:1030F00001D20024F6E770BD10B51446421C4B1CEB
:103100009BB292B2FFF7CEFF200AFFF701FDE0B2BB
:10311000FFF7FEFC10BD00002DE9F04F83B08346A1
:10312000019192469846BDF830909DF83470002683
:1031300025E000252CE0C84501D0012F13D06D08F3
:10314000013464B2072C18DC15F0010FF3D0012F05
:10315000F5D1019BE11806EB0B00424689B280B223
:10316000FFF7CAFFEBE7019BE11806EB0B004A46AD
:1031700089B280B2FFF7C0FFE1E7013676B2052ED3
:1031800008DC052ED5D00AEB8A033344034AD55C0C
:103190000024D7E703B0BDE8F08F00BFD85F000878
:1031A00010B582B004463620FFF7A0FC032C0BD8E4
:1031B000DFE804F0020C151E02AA482302F8043DC1
:1031C00001213620FFF74CFC02B010BD02AA2823D3
:1031D00002F8043D01213620FFF742FCF4E702AA81
:1031E000882302F8043D01213620FFF739FCEBE784
:1031F00002AAE82302F8043D01213620FFF730FC43
:10320000E2E72DE9F04383B006460D469146BDF84E
:103210002880BDF82C7000240DE0325D012301935D
:10322000009743460FFA89F128B2FFF775FF06357C
:10323000ADB20134E4B23046FDF782F98442ECD3FA
:1032400003B0BDE8F083000010B50446FDF778F93F
:10325000642382B221460248FEF743FD10BD00BF41
:10326000700900202DE9F04782B0D0F80080CA0034
:103270000A4493000344DA6D5B6D9A4255D8C14607
:103280009B1A01EBC104A2000244926C934200D845
:103290001A460C46074602F1030A4FEA9A0A15E05D
:1032A00006F1030A4FEA9A0AE30023449D003D44D5
:1032B000E96C3B7C0093B3B2E2B2404601F003FA02
:1032C000EB6C3344EB64EB6D1E44EE6509EB441389
:1032D00003F510639B699BB29A4512D8E30023441F
:1032E0009A003A44D16D536D99420AD24BB15B1AA0
:1032F00004EBC4018A003A44966CB342D0D81E460F
:10330000CEE7E3002344980007447A6DFB6D9A42B0
:103310000FD804F00F040123A340D8F8344824EA5E
:103320000304C8F83448002000E0012002B0BDE8E2
:10333000F0870020FAE7F0B58BB0002800F08A8013
:103340000446056890F8BD3423B3032384F8BD34E4
:10335000EB6B13F4807F01D100232361206800F020
:10336000D3FE254655F8107B6E460FCD0FC60FCD08
:103370000FC695E8030086E80300231D0ECB3846F0
:1033800000F000FE58B1022384F8BD340125284620
:103390000BB0F0BD80F8BC3401F0E0FDD5E70021B2
:1033A000206801F093FB002315E0D900C8188200C3
:1033B0002244012082F83D0082F83C30A2F84430DB
:1033C000002082F840009064D064CA189100214423
:1033D00048650133DBB26568AB42E6D3002315E0F4
:1033E000D800C1188A002244002182F87D1282F898
:1033F0007C3282F88012C2F88812C2F88C12C2188D
:1034000090002044C0F894120133DBB29D42E7D80B
:10341000254655F8107B6E460FCD0FC60FCD0FC653
:1034200095E8030086E80300231D0ECB384600F024
:10343000C7FE054620B1022384F8BD340125A6E766
:10344000002384F83830012384F8BD34206801F06B
:10345000FBFA9CE701259AE7026890F8BC34012B3F
:1034600019D010B5012380F8BC34836A012B0AD02F
:103470000446006800F042FE206801F0D7FA002000
:1034800084F8BC0410BD8369012BF1D0936B43F425
:1034900080339363ECE702207047000070B5044668
:1034A0000D460068066C00EB411303F53063996824
:1034B0002269012A11D0384A964256D03DB905EB0F
:1034C000C50293002344D3F89432002B5ED0E9B2B6
:1034D000204602F0E2FB002070BD11F0080F09D079
:1034E0002E4A9642F7D911F4004FF4D04FF400421F
:1034F0009A60F0E711F0200F2AD111F0280FEAD1DD
:10350000264A964202D911F4004F24D1E9002944F9
:103510008A002244D2F898121B69C3F31203CB1A13
:10352000C2F89C327DB905EBC5018A002244D2F86D
:103530009422A2B1E90029448A002244D2F88C12D4
:103540000B44C2F88C32E9B2204602F0A6FBC2E777
:1035500020229A60BFE74FF400429A60BBE704F272
:10356000C442012101F0F4FAEDE711F4004F09D152
:1035700011F0200F01D020229A60E9B2204602F01B
:103580008CFBA8E74FF400429A60A4E704F2C4421F
:10359000002101F0DDFA9AE70A31544F0A30544F06
:1035A00038B5044603681D6C03EB4111D1F8082BB4
:1035B0000E4B9D4207D901F5306112F4004F02D045
:1035C0004FF400438B60204602F024FA074B9D42E3
:1035D00002D92369012B01D0002038BD04F2C44276
:1035E0000121206801F0B4FAF6E700BF0A30544F19
:1035F00070477047704790F8BC34012B01D102200E
:10360000704710B50446012380F8BC3480F83810A8
:10361000006801F0FBF9002084F8BC0410BDF8B587
:1036200011F0800F1ED101F00F06F500AF19BC009C
:10363000274604F51E74044404343E46064400251F
:1036400086F87D5201F00F012170E26023716278EB
:1036500002B12181022B14D090F8BC34012B13D17C
:103660000220F8BD01F00F06F500AF19BC00274697
:103670003834044404343E460644012586F83D505F
:10368000E0E700236371E7E70546012380F8BC34D7
:103690002146006800F06DFE002085F8BC04F8BDEE
:1036A00038B511F0800F17D101F00F04E2001519A1
:1036B000AB001D4603F51E73034404332C4604443B
:1036C000002284F87D2201F00F01197090F8BC24CB
:1036D000012A10D1022038BD01F00F04E2001519B3
:1036E000AB001D463833034404332C460444012206
:1036F00084F83D20E7E70446012280F8BC241946FF
:10370000006800F081FE002084F8BC0438BD70B56C
:1037100001F00F05EE0071198C0004F51E740444CD
:10372000211D2E44B4000444C4F88C22C4F8943201
:103730000023C4F89C3284F87D3284F87C520369FB
:10374000012B06D065B1DAB2006800F0D1FF00208D
:1037500070BD05EBC506B4000444C4F89022F1E73F
:10376000DAB2006800F0BEFEF1E701F00F0101EBF4
:10377000C1018B001844D0F89C02704770B501F06D
:103780000F05EE0071198C0038340444211D2E44BD
:10379000B4000444E26463650023E365012384F814
:1037A0003D3084F83C500369012B06D05DB1DAB29C
:1037B000006800F09DFF002070BD05EBC506B40059
:1037C00004442265F2E7DAB2006800F08BFEF2E70B
:1037D00038B501F00F0543689D4238D811F0800FCD
:1037E00015D1CA005418A3001C4603F51E730344E8
:1037F000043322460244002182F87D1201229A708D
:103800001D7090F8BC24012A0DD1022038BDEA00B9
:1038100051198B0019463833034404330144012203
:1038200081F83D20EAE70446012280F8BC241946CD
:10383000006801F090F81DB1002084F8BC0438BD88
:1038400004F2C442217C206801F082F9F4E70120EF
:1038500038BD01F00F03426893422FD810B511F024
:10386000800F14D1DA00D418A1000C4601F51E71A6
:10387000014404310444002284F87D2200228A702D
:103880000B7090F8BC34012B0DD1022010BDDA0072
:10389000D418A1000C4638310144043104440122FB
:1038A00084F83D20EAE70446012380F8BC34006830
:1038B00001F07EF8002084F8BC0410BD01207047A0
:1038C00008B511F0800F0CD101F00F0101EBC1011F
:1038D0008B0003F51E7101440431006800F092FE74
:1038E00008BD01F00F0101EBC1018B0003F13801AC
:1038F00001440431F1E72DE9F04F83B00446066836
:10390000304601F0DFF810B103B0BDE8F08F354666
:103910000746206801F0A6F80028F5D006F5006AF1
:10392000DAF80830C3F30D23C4F8FC34206801F042
:1039300099F810F0020F04D02268536903F00203D3
:103940005361206801F08EF810F0100F13D0226838
:10395000936923F010039361D6F8208008F00F09D3
:10396000C8F34343022B4CD0062B71D022689369D5
:1039700043F010039361206801F074F810F4002FF5
:103980007AD1206801F06EF810F4802F40F0E580C5
:10399000206801F067F80028C0F26A81206801F011
:1039A00061F810F4006F0AD0DAF8083013F0010F54
:1039B00040F078812268536903F400635361206802
:1039C00001F050F810F4805F40F07081206801F041
:1039D00049F810F4005F40F0C781206801F042F818
:1039E00010F0080F40F0D881206801F03BF810F08B
:1039F000800F00F0EB81B36923F08003B3610127EE
:103A0000D4E147F6F07318EA030FAFD04FEAC903C9
:103A100001934B444FEA830BA3444FEA1818C8F3B1
:103A20000A02DBF88C12304600F070FFC8F30A0877
:103A3000DBF88C324344CBF88C32019B99444FEA3B
:103A400089032344D3F89C324344CBF89C328DE75E
:103A5000082204F2C441304600F058FFC8F30A18A7
:103A60004FEAC90303EB09018A002244D2F89C32D1
:103A70004344C2F89C3279E7206800F0F7FF8046A3
:103A8000B94635E005EB49130122C3F8082B494636
:103A90002046FFF703FD3DE005EB49130822C3F87C
:103AA000082B49462046FFF77BFD36E009EBC902AB
:103AB0009300234493F87F32012B44D005EB491344
:103AC0000222C3F8082B1BF0200F04D005EB49138A
:103AD0002022C3F8082B1BF4005F05D005EB491327
:103AE0004FF40052C3F8082B09F101094FEA5808B6
:103AF000B8F1000F3FF445AF18F0010FF4D05FFAB2
:103B000089F301931946206800F0C0FF834610F046
:103B1000010FB7D11BF0080FBED11BF0100F04D05E
:103B200005EB49131022C3F8082B1BF0020FCAD073
:103B3000736913F0800FB9D0DAF8043043F480636E
:103B4000CAF80430B2E793002344002283F87F22AE
:103B500001992046FFF74DFDB0E7206800F08EFF89
:103B60008046B94625E00199204602F007F91BF08E
:103B7000080F04D005EB49130822C3F808291BF0ED
:103B8000100F04D005EB49131022C3F808291BF0CD
:103B9000400F04D005EB49134022C3F808291BF05D
:103BA000020F44D11BF0800F5DD109F101094FEAEA
:103BB0005808B8F1000F3FF4EBAE18F0010FF4D045
:103BC0005FFA89F301931946206800F068FF834685
:103BD00010F0010FCBD009F00F03012101FA03F21D
:103BE000DAF8343023EA0203CAF8343005EB49131B
:103BF000C3F8081923698B42B5D14FEAC9024A4478
:103C000093002344996CDA6C0A44DA64B9F1000F2A
:103C1000A9D109EBC902930023445B6D002BA2D10B
:103C200004F2C4420121206800F092FF9BE749465C
:103C3000304600F06FFA09EBC9029300234493F871
:103C40003F30012B05D005EB49130222C3F80829A8
:103C5000A8E793002344002283F83F2001992046DF
:103C6000FFF7C8FCEFE749462046FFF7FBFA9CE761
:103C7000DAF8043023F00103CAF8043094F8F4347D
:103C8000012B08D02046FFF7B3FC2268536903F0EC
:103C90000043536182E6002184F8F414204600F0CA
:103CA00048F9F2E7204601F0A1F983E6DAF804309A
:103CB00023F00103CAF804301021206800F02AFA2A
:103CC00063689F421BD205EB47134FF67F31C3F861
:103CD0000819D3F8002922F40012C3F80029C3F808
:103CE000081BD3F8002B22F40012C3F8002BD3F8E2
:103CF000002B42F00062C3F8002B0137E0E7DAF84E
:103D00001C3043F00113CAF81C30236BEBB1DAF816
:103D1000843043F00B03CAF88430DAF8443043F0BF
:103D20000B03CAF84430D6F8003823F4FE63C6F813
:103D3000003804F2C442217C206800F009FF2268A8
:103D4000536903F48053536140E6DAF8143043F4C6
:103D5000005343F02B03CAF81430DAF8103043F064
:103D60000B03CAF81030DEE7206800F0E0FE2068A0
:103D700000F0EEFAE0602768FEF738FB227B014690
:103D8000384600F045F9204601F0F1F92268536900
:103D900003F40053536120E6204601F021F9226824
:103DA000536903F0080353611EE6013763689F42BD
:103DB0000CD207EBC7029300234493F87F32012B08
:103DC000F3D1F9B22046FFF77BFDEEE7206800F063
:103DD00049FE10F4801F3AD1206800F043FE10F431
:103DE000001F6FD1206800F03DFE10F0804F6BD1B6
:103DF000206800F037FE10F0040F3FF485AD236813
:103E00005D6815F0040F68D123685A6815435D603A
:103E10007AE5013763689F421BD205EB4713D3F85D
:103E2000001907EBC7029300234493F84030012B9D
:103E3000EFD10029EDDA93002344012283F83F20DB
:103E400067F07F01C9B22046FFF73AFDE1E701279D
:103E5000E0E72268536903F480135361BCE7013340
:103E60006268934228D205EB4312D2F8000B03EBB1
:103E7000C3018A00224492F88022012AEFD100284F
:103E8000EDDA00F48030D4F8FC2402F00102904214
:103E9000E5D18A002244012182F87F12B26942F002
:103EA0008002B261726912F0800FD8D1DAF8043062
:103EB00043F40073CAF804302268536903F4001312
:103EC00053618FE70123CBE7204601F0A7F8226872
:103ED000536903F0804353618AE7204601F09FF85D
:103EE00092E730B40468606A29B10D46A36A00EB1A
:103EF000134000230CE040EA0240A06212E003F10C
:103F0000400104EB8101496800EB11400133DBB251
:103F1000691E8B42F3D340EA024005F13F0104EBF6
:103F200081014860002030BC70470368596200205E
:103F30007047704782B000230193019B01330193C6
:103F4000019A0F4B9A4215D80369002BF5DA00232A
:103F50000193036943F001030361019B0133019362
:103F6000019A074B9A4208D8036913F0010FF4D164
:103F7000002000E0032002B070470320FBE700BFF1
:103F8000400D030084B010B5044603A880E80E007D
:103F9000089B012B0DD0E36843F04003E36020460B
:103FA000FFF7C8FF0C9B23BBA36B43F48033A363D1
:103FB00013E0A36B23F48033A363E36823F4840347
:103FC00023F04003E360E36823F44013E3600F9BB6
:103FD000012B09D02046FFF7ADFF069B012B0DD02A
:103FE000BDE8104004B07047E36843F48013E36019
:103FF000F0E7A36B23F48033A363EEE7A36843F0F9
:104000000603A360A36843F02003A360E8E7000071
:10401000022A0AD00921C26822F47052C260C36821
:1040200043EA8123C360002070472A4B0B442A4A8D
:1040300093423FD9294B0B44294A93423CD9A1F5DD
:104040007403A3F51053274A934237D9A1F1837320
:10405000A3F5E74302F5C332A032934230D9224B95
:104060000B44224A93422DD9214B0B4402F5922254
:1040700002F57872934227D91E4B0B4402F5C322F6
:1040800002F52072934221D9A1F1B773A3F55853D9
:1040900002F5B71202F55872934219D9164B0B4428
:1040A00002F5122202F5F862934201D90621B2E725
:1040B0000721B0E70F21AEE70E21ACE70D21AAE7FB
:1040C0000C21A8E70B21A6E70A21A4E70921A2E712
:1040D0000821A0E7405327FFFF340C00401E1BFFC0
:1040E0003F420F007F4F120060B6E5FE5FE316000F
:1040F00000D3CEFEC05BB3FEE05459FE836843F0AC
:104100000103836000207047836823F0010383600C
:104110000020704782B000230193019B013301937B
:10412000019A0F4B9A4215D80369002BF5DA002348
:104130000193890141F020010161019B0133019349
:10414000019A074B9A4208D8036913F0200FF4D163
:10415000002000E0032002B070470320FBE700BF0F
:10416000400D030082B000230193019B01330193B2
:10417000019A0E4B9A4213D80369002BF5DA0023FB
:10418000019310230361019B01330193019A074BB3
:104190009A4208D8036913F0100FF4D1002000E010
:1041A000032002B070470320FBE700BF400D03006F
:1041B000D0F800381943C0F80018002070470000FC
:1041C00084B02DE9F041044607A880E80E0025469A
:1041D000002306E003F1400204EB8202002151605B
:1041E00001330E2BF6D9119BA3BBD4F8043843F04E
:1041F0000203C4F80438A36B43F40013A363A36B56
:1042000023F40023A363A36B23F48023A36300237D
:10421000C4F8003E04F50066D4F80038C4F800384D
:104220000C9B012B1FD003212046FFF7C1FF10215B
:104230002046FFF76FFF804608B14FF00108204687
:10424000FFF790FF08B14FF001080023336173615D
:10425000F3611FE0A36B23F40013A363A36B43F488
:104260000023A363D3E7099B23B900212046FFF76E
:104270009FFFDCE701212046FFF79AFFD7E7C3B98C
:104280004FF00060C2F8000900220A614FF67F3249
:104290008A60013307998B4210D205EB431202F575
:1042A0001061D2F800090028E9DB0020C2F80009FB
:1042B000EAE74FF09040C2F80009E5E700230AE082
:1042C000BBB14FF09047C2F8007B002202614FF66D
:1042D0007F32826001338B4210D205EB431202F52C
:1042E0003060D2F8007B002FEADB0027C2F8007BA9
:1042F000EBE74FF00067C2F8007BE6E7336923F491
:10430000807333610023A3616FF0804363610A9B74
:104310001BB9A36943F01003A361A2690B4B1343BC
:10432000A3610D9B1BB1A36943F00803A361119B1B
:10433000012B04D04046BDE8F04104B07047A369AA
:1043400043F0804343F00403A361F3E700383C806B
:10435000D0F8083813F0060307D0022B07D0062B3D
:1043600001D00F20704702207047002070470220C4
:10437000704770B40B784A78012A22D0D0F81C28F4
:1043800003F00F060124B44042EA0442C0F81C289E
:1043900000EB4310D0F8003B13F4004F0ED1D0F8DF
:1043A000003BCA68C2F30A02097942EA8142134318
:1043B00043F0805343F40043C0F8003B002070BC3E
:1043C0007047D0F81C4803F00F06B24092B2224367
:1043D000C0F81C2800EB4310D0F8002912F4004F5D
:1043E000ECD1D0F80029CC68C4F30A04097944EA76
:1043F000814444EA8353134343F0805343F400431E
:10440000C0F80039DAE7000030B40B784A78012AA6
:1044100024D000EB4313D3F8002B002A50DBD0F854
:104420003C580A7802F00F02012404FA02F225EA4D
:104430000242C0F83C28D0F81C28097801F00F018E
:104440008C4022EA0444C0F81C48D3F8001B234ADD
:104450000A40C3F8002B002030BC704700EB431328
:10446000D3F80029002A1EDBD0F83C580A7802F065
:104470000F02012404FA02F292B225EA0202C0F805
:104480003C28D0F81C28097801F00F018C40A4B218
:1044900022EA0404C0F81C48D3F80019104A0A4064
:1044A000C3F80029D7E7D3F8002942F00062C3F827
:1044B0000029D3F8002942F08042C3F80029D3E74D
:1044C000D3F8002B42F00062C3F8002BD3F8002B86
:1044D00042F08042C3F8002BA1E700BF0078F3EF61
:1044E000007833EC70B40B784C78012C28D000EBBA
:1044F000431000F530631C69E40CE4041C611C6982
:1045000024F0FF5424F4C0141C618C690CB1CC68F5
:104510008C61CC68CC611C6944F400241C611C696A
:10452000CD69C5F312052C431C61012A65D0D0F872
:10453000003B43F00443C0F8003B002070BC7047D0
:104540008C696CBB00EB4314D4F8105925F0FF556F
:1045500025F4C015C4F81059D4F8105945F40025B5
:10456000C4F81059D4F81059ED0CED04C4F81059E2
:10457000012A33D000EB4313D3F8002942F0044260
:10458000C3F800298B69002BD7D0D0F834280978DC
:1045900001F00F040121A1400A43C0F83428CCE700
:1045A00000EB431404F510642569ED0CED0425615E
:1045B000256925F0FF5525F4C01525618E69CD6864
:1045C000AE4200D98D61256945F400252561256934
:1045D0008E69C6F3120635432561C9E74A691AB1E7
:1045E00000EB4311C1F8142900EB4310D0F8002967
:1045F00042F00442C0F800299FE70A69002A96D0D9
:104600005A6194E710B483B00023019304464B78B9
:10461000012B0BD00B7800EB4313D3F8002B002AAF
:104620002DDB002003B05DF8044B70470B7800EBE6
:104630004313D3F80029002A01DB0020F2E7D3F866
:10464000002942F00062C3F800290B7800EB431008
:10465000D0F8003943F08043C0F80039019B0133A2
:104660000193019A42F210739A4228D80B7804EB16
:104670004313D3F80039002BF0DB0020D2E7D3F846
:10468000002B42F00062C3F8002B0B7800EB4310C4
:10469000D0F8003B43F08043C0F8003B019B01335E
:1046A0000193019A42F210739A420AD80B7804EBF4
:1046B0004313D3F8003B002BF0DB0020B2E70120CE
:1046C000B0E70120AEE770B49DF80C4064B9033345
:1046D0009E0807E000EB023303F5805351F8045BBA
:1046E0001D600134B442F5D3002070BC7047000057
:1046F000F0B583B00C784B78012B2BD000EB441431
:1047000004F530631D69ED0CED041D611D6925F094
:10471000FF5525F4C0151D618D69002D40F0C58041
:104720001D69CE68C6F3120635431D611D6945F447
:1047300000251D61012A00F0CE800B79012B00F0CD
:10474000D080D4F8003B43F00443C4F8003B002081
:1047500003B0F0BD8B6983BB00EB4413D3F8105951
:1047600025F0FF5525F4C015C3F81059D3F810599A
:1047700045F40025C3F81059D3F81059ED0CED0499
:10478000C3F81059012A4CD000EB4414D4F8003976
:1047900043F00443C4F800390B79012B6AD08B69CC
:1047A000002BD4D0D0F834380A7802F00F0101225F
:1047B0008A401343C0F83438C9E700EB4413D3F8F8
:1047C0001059ED0CED04C3F81059D3F8105925F029
:1047D000FF5525F4C015C3F81059D3F810698D6939
:1047E000CF683D44013DB5FBF7F5474F07EAC545A6
:1047F0003543C3F81059D3F810598E69C6F3120621
:104800003543C3F8105903F510630D79012DB9D163
:104810001D6925F0C0451D611D6945F000551D61EC
:10482000B0E74B691BB100EB4412C2F814390B79A5
:10483000012B08D000EB4414D4F8003943F00443B2
:10484000C4F8003983E7D0F8083813F4807F08D122
:1048500000EB4412D2F8003943F00053C2F800399B
:10486000E8E700EB4412D2F8003943F08053C2F875
:104870000039DFE7D0F8083813F4807F0ED1D4F880
:10488000003943F00053C4F8003914460B46096957
:104890001A781B8B0094FFF716FF58E7D4F80039FD
:1048A00043F08053C4F80039EFE7CE683544013D4A
:1048B000B5FBF6F5AFB206FB07F6CE611E69124FE7
:1048C00007EAC54535431D611D69CE69C6F3120669
:1048D00035431D612EE70A69002A3FF42EAF5A6165
:1048E0002BE7D0F8083813F4807F06D1D4F8003BCA
:1048F00043F00053C4F8003B23E7D4F8003B43F0F7
:104900008053C4F8003B1CE70000F81F70B483B06C
:104910000646950802F00302002305E006F58054E0
:10492000246841F8044B0133AB42F7D37AB100F568
:104930008050036801930025EBB2DC00019BE3404B
:1049400001F8013B0135013A92B2002AF4D1084640
:1049500003B070BC70470B784A78012A14D000EB82
:104960004310D0F8002B002A06DB2BB1D0F8003B17
:1049700023F08043C0F8003BD0F8003B43F4001321
:10498000C0F8003B0020704700EB4310D0F800292E
:10499000002A06DB2BB1D0F8003923F08043C0F8A1
:1049A0000039D0F8003943F40013C0F80039E9E7C2
:1049B0000B784A78012A0ED000EB4310D0F8003B68
:1049C00023F40013C0F8003B0B79023BDBB2012B50
:1049D00015D90020704700EB4310D0F8003923F4BC
:1049E0000013C0F800390B79023BDBB2012BF0D881
:1049F000D0F8003943F08053C0F80039E9E7D0F827
:104A0000003B43F08053C0F8003BE2E7D0F80038A9
:104A100023F4FE63C0F80038D0F80038090101F42F
:104A2000FE610B43C0F8003800207047D0F8003E0C
:104A300023F00303C0F8003ED0F8043823F002034B
:104A4000C0F8043800207047D0F8003E23F003037C
:104A5000C0F8003ED0F8043843F00203C0F8043830
:104A6000002070474269806910407047D0F81838BC
:104A700000F50060C0691840000C7047D0F8183885
:104A800000F50060C069184080B2704700EB41112A
:104A9000D1F8082B00F5006040691040704710B451
:104AA000D0F81028D0F8343801F00F04E340DB01CF
:104AB000DBB2134300EB4111D1F8080918405DF84F
:104AC000044B7047406900F00100704738B5054657
:104AD000C36823F0C043C360012913D029BBC36856
:104AE00043F08043C36000240120FDF729FE013418
:104AF0002846FFF7E7FF08B1312CF5D9322C12D048
:104B0000002038BDC36843F00053C3600024012077
:104B1000FDF716FE01342846FFF7D4FF0128EDD03B
:104B2000312CF4D9EAE7012038BD012038BDD0F896
:104B3000003923F4FF6323F00703C0F80039D0F8ED
:104B4000043843F48073C0F8043800207047000034
:104B500010B4046C154B9C4203D9D0F8003B002BD9
:104B600016DB0024C0F8104BD0F8104B44F400249E
:104B7000C0F8104BD0F8104B44F01804C0F8104B9C
:104B8000D0F8104B44F0C044C0F8104B012903D0BA
:104B900000205DF8044B7047C0F8142BD0F8003BA0
:104BA00043F08023C0F8003BF2E700BF0A30544FC7
:104BB00000207047002070470020704710B5D0F8E3
:104BC000BC4284B1D0F8C0327BB194F80002FF2817
:104BD0000DD09B6894F8012221469847FF2384F862
:104BE0000032002010BD032010BD002010BD0020A9
:104BF00010BD00000A230380004870470801002010
:104C000012230B80004870471401002004230B80FE
:104C1000004870473C01002019B1C0F8C0120020C4
:104C2000704703207047D0F8BC32C3F80812C3F8AD
:104C300010227047D0F8BC321BB1C3F80412002018
:104C4000704703207047000010B5064C002206494B
:104C50002046FFF7E8FF05492046FFF7EBFF00205D
:104C600010BD00BF000A0020D4140020D40C002086
:104C700010B582B00023ADF8063089B10446C4F8FF
:104C8000B412CB6A23B10DF106009847C4F8CC02E8
:104C9000D4F8D0320133C4F8D032002002B010BDB5
:104CA0000320FBE708B5D0F8C402FEF7D5FB18B126
:104CB000022803D0032008BD002008BD012008BD44
:104CC00008B5D0F8B4320BB11B68984708BD08B5D9
:104CD000D0F8B4325B68984700B1032008BD017476
:104CE000704790F89C32DBB280F89D32042380F844
:104CF0009C320020704708B590F89C32DBB2032B41
:104D000001D0002008BDD0F8B432002BF9D0DB6907
:104D1000002BF6D09847F4E708B5012380F89C32C1
:104D2000D0F8B43233B15B680179984708B10320F9
:104D300008BD08BD002008BD0020704703780A8820
:104D400013440B80037818447047428803789A42D2
:104D500018D930B583B00D460446ADF806306288E8
:104D6000BDF806309A420AD90DF10601FFF7E6FFB9
:104D70004378052BF3D18378AB42F0D100E00020DB
:104D800003B030BD00207047F8B507460F4C8221B4
:104D90002046FFF7DAFF064601212046FFF7D5FF40
:104DA000054681212046FFF7D0FF0EB11023B371D5
:104DB0001DB140232B7100236B7118B14023037187
:104DC0000023437143233B800048F8BDC40000200A
:104DD000F8B507460F4C82212046FFF7B6FF06467E
:104DE00001212046FFF7B1FF054681212046FFF74C
:104DF000ACFF0EB11023B3711DB100232B71022340
:104E00006B7118B1002303710223437143233B806C
:104E10000048F8BDC4000020F8B507460F4C8221B9
:104E20002046FFF792FF064601212046FFF78DFF3F
:104E3000054681212046FFF788FF0EB11023B3718C
:104E40001DB140232B7100236B7118B140230371F6
:104E50000023437143233B800048F8BDC400002079
:104E60000B7803704B7843708B78CA7843EA02233F
:104E700043800B794A7943EA022383808B79CA798C
:104E800043EA0223C3807047002302E00133DBB210
:104E900001300278002AF9D118467047C8B170B5C0
:104EA0000D4616460446FFF7EFFF01304000308004
:104EB000287003236B70022307E0EA5401345A1C64
:104EC000D2B20021A9540233DBB22278002AF4D1F5
:104ED00070BD704708B50A4628B105490548FFF777
:104EE000DDFF034808BD02490248FFF7D7FFF8E796
:104EF000D41C0020D467000810B5044C0A46214693
:104F00000348FFF7CBFF204610BD00BFD41C002094
:104F1000C067000808B50A4628B105490548FFF7EB
:104F2000BDFF034808BD02490248FFF7B7FFF8E795
:104F3000D41C0020A467000808B50A4628B105491A
:104F40000548FFF7ABFF034808BD02490248FFF7D9
:104F5000A5FFF8E7D41C0020B067000830B589B081
:104F60000023039304930593069307930368B3F117
:104F7000A04F01D009B030BD00250195164C236B20
:104F800043F001032363236B03F001030193019BAF
:104F90004FF4C053039302230493032306930A237D
:104FA000079303A90D48FDF765FA636B43F080038F
:104FB00063630295636C43F480436364636C03F43E
:104FC00080430293029B2A4629464320FDF74CFB6F
:104FD0004320FDF77BFBCDE7003802400000024094
:104FE00008B5D0F80805FFF786FE08BD10B50446E1
:104FF000D0F80805FFF775FE2268D2F8003E43F0AE
:105000000103C2F8003E236A23B1034A136943F047
:105010000603136110BD00BF00ED00E0704708B546
:10502000D0F80805FFF778FE08BD000003780BB143
:105030000020704710B503461548C0F80835C3F87E
:10504000C4024FF0A0430360042343600222C26005
:10505000002303618261C36103624362C36203632D
:10506000FEF769F980B90A4C80212046FEF75DFF02
:10507000402200212046FEF734FF802201212046F5
:10508000FEF72FFF002010BDFCF78CFAEBE700BF06
:105090002404002098B108B503460020C3F8B402E8
:1050A000C3F8C002C3F8CC0209B1C3F8B012184665
:1050B000012380F89C320270FFF7B8FF08BD03207F
:1050C0007047000010B5094C002209492046FFF73F
:1050D000E1FF08492046FFF7CBFD07492046FFF7CF
:1050E0009BFD2046FFF7DEFD10BD00BF000A00203B
:1050F000700000208C0000202801002010B51C4604
:1051000013462246D0F8C402FEF789FA10BDF8B55E
:105110000446012380F89C320023C0F89432436097
:10512000C0F8A032D0F8B432EBB15B68EBB100212B
:105130009847B0B103274023002211462046FFF7CD
:10514000DDFF0126A4F864614025C4F860512B46B8
:10515000002280212046FFF7D1FFA6842562384631
:10516000F8BD0027E7E70027E5E70027E3E710B5EC
:105170000446C3682BB1022B0DD0FCF713FA0121B2
:1051800000E00021D4F80805FFF7A9FDD4F80805D0
:10519000FFF7BDFF10BD0121F4E708B5D0F8C40248
:1051A000FEF77EFA08BD38B504468121FFF7F5FF0A
:1051B0000025258701212046FFF7EFFFA4F878514D
:1051C00082212046FFF7E9FFA4F84C50A4F84E5086
:1051D000D4F8BC323BB1D4F8C0325B689847C4F80D
:1051E000BC52C4F8B852002038BD08B5D0F8C4028B
:1051F000FEF7EEFA08BD10B504468021FFF7F5FF73
:1052000000212046FFF7F1FF10BD08B5D0F8C40219
:10521000FEF71FFB08BDD0F8C43211F0800F08D193
:1052200001F07F0101EBC1018A00134493F87E0273
:10523000704701F07F0101EBC1018A00134493F82C
:105240003E00704708B5D0F8C402FEF7D4F908BD97
:1052500008B5D0F8C402FEF791FA08BD10B50C4CA1
:105260000A4601462046FFF7DEFCD4F8BC22D2F8FD
:10527000143203B110BD0123C2F81432D2F8103237
:105280002046E362D2F808228121FFF7E1FFF1E72F
:10529000000A0020F8B5D0F8C462D0F8BC3263B37D
:1052A00001F00F0404EB8405AA00024492694AB19C
:1052B00004EBC407BD002E44B66CB2FBF6F506FB4A
:1052C000152272B10022C3F81422D0F8C02214694A
:1052D000ACB10A4603F50471D3F80802A0470020D8
:1052E000F8BD04EB8404A300034400249C6123461E
:1052F0002246FFF7ADFF2046F8BD0320F8BD002091
:10530000F8BD10B513460222C0F894228361C36130
:105310000A460021FFF79CFF10BD08B5CB88012B82
:105320000DD190F89C3203F0FF029BB1022A09D9FB
:10533000032A0FD10122011DFFF7E3FF08BDFFF78C
:105340005AFF08BD0146002341F8083F0122FFF73C
:10535000D8FF08BDFFF74FFF08BD08B590F89C3295
:10536000013B022B12D8CB88022B0CD10123C36046
:10537000D0F8A0320BB10323C360022200F10C016C
:10538000FFF7BFFF08BDFFF736FF08BDFFF733FF8C
:1053900008BD08B513460A460021FFF759FF08BDAE
:1053A00008B50422C0F8942200231A461946FFF7D4
:1053B0004FFF08BD70B505460C460B7803F060033F
:1053C000202B07D0402B05D023B1FFF714FF002678
:1053D000304670BD95F89C32013B022B1BD82379D7
:1053E000012B12D8D5F8B4329B6863B12146284608
:1053F00098470646E388002BEAD1002EE8D12846DC
:10540000FFF7CEFFE4E70326F4E721462846FFF73F
:10541000F2FE0026DCE721462846FFF7ECFE0026D8
:10542000D6E770B505460C468A88D6B20B7803F0ED
:105430006003202B06D0402B04D0A3B1FFF7DBFE86
:10544000002070BD31462846FFF776FCFF2800F0AB
:10545000FA80D5F8B4329B68002B00F0F680214624
:105460002846984770BD4B78012B31D0002B6BD06C
:10547000032B40F0E48090F89C32DBB2022B05D085
:10548000032B15D0FFF7B7FE002070BD56B1802E5C
:1054900008D03146FFF7A9FE80212846FFF7A5FE78
:1054A000002070BD21462846FFF7A5FE002070BDF4
:1054B0004B8823B91EB1802E01D0CB8823B128465A
:1054C000FFF76EFF002070BD3146FFF78EFEF6E756
:1054D00090F89C32DBB2022B05D0032B15D0FFF7DE
:1054E0008AFE002070BD56B1802E08D03146FFF7ED
:1054F0007CFE80212846FFF778FE002070BD214603
:105500002846FFF778FE002070BD4B88002B40F046
:105510009E8016F07F0F13D12846FFF741FF3146DA
:105520002846FFF709FCFF2800F09380D5F8B43235
:105530009B68002B00F08F8021462846984770BD5D
:105540003146FFF762FEE7E790F89C32DBB2022BB0
:1055500005D0032B28D0FFF74EFE002070BD0EB102
:10556000802E13D112F0800F14D106F07F0606EBC7
:105570008606B30003F5A8712944043100240C60A9
:1055800002222846FFF7BDFE204670BDFFF733FE1E
:10559000002070BD06F07F0606EB8606B30003F11F
:1055A000100129440431E9E752B2002A1EDB06F05B
:1055B0000F0303EB830399000144B1F864311BB37B
:1055C000002A26DB06F07F0202EB8202930003F53D
:1055D000A8742C44043436B3802E24D03146284697
:1055E000FFF719FE40B3012323601EE006F00F030E
:1055F00003EB8303990001448B8C002BE0D12146FF
:10560000FFF7F9FD002070BD2146FFF7F4FD0020F3
:1056100070BD06F07F0202EB8202930003F11004DA
:105620002C440434D7E70023236002222146284675
:10563000FFF767FE002070BD00232360F5E7FFF74A
:10564000DAFD002070BD002070BD002070BD00207C
:1056500070BD002070BD002070BD30B583B0044621
:105660000D460023ADF806304A88130A013B062B8D
:1056700000F2C980DFE803F0042137C7C7A5B500F1
:10568000D0F8B0321B680DF10601007C984700236A
:105690008BB9EA88002A00F0C180BDF80630002BE3
:1056A00000F0B7809A4228BF1A46ADF8062001469E
:1056B0002046FFF726FE03B030BD037C4BB9D0F87F
:1056C000B4329B6A0DF10600984702234370002311
:1056D000DEE7D0F8B432DB6A0DF10600984702230A
:1056E00043700023D4E7D2B2052A64D8DFE802F081
:1056F000031323334353D0F8B0325B682BB10DF161
:105700000601007C98470023C2E72946FFF773FD96
:1057100001230020BCE7D0F8B0329B682BB10DF11B
:105720000601007C98470023B2E72946FFF763FD96
:1057300001230020ACE7D0F8B032DB682BB10DF1CB
:105740000601007C98470023A2E72946FFF753FD96
:10575000012300209CE7D0F8B0321B692BB10DF17A
:105760000601007C9847002392E72946FFF743FD96
:10577000012300208CE7D0F8B0325B692BB10DF12A
:105780000601007C9847002382E72946FFF733FD96
:10579000012300207CE7D0F8B0329B692BB10DF1DA
:1057A0000601007C9847002372E72946FFF723FD96
:1057B000012300206CE72946FFF71DFD012300208F
:1057C00066E7037C3BB9D0F8B4325B6B0DF10600A1
:1057D000984700235CE72946FFF70DFD01230020D1
:1057E00056E7037C4BB9D0F8B4321B6B0DF10600C1
:1057F00098470723437000234AE72946FFF7FBFC3D
:105800000123002044E72946FFF7F5FC012300208F
:105810003EE729462046FFF7EEFC4CE72046FFF71F
:10582000BFFD48E738B504468B88FBB9CB88EBB998
:105830004B887F2B1AD803F07F0590F89C32DBB29F
:10584000032B0CD080F89E522946FFF7FBFC204624
:10585000FFF7A6FD35B1022384F89C3238BDFFF76F
:10586000CAFC38BD012384F89C3238BD2046FFF7BE
:10587000C2FC38BD38B504468D78012D03D9FFF739
:10588000BAFC032038BD90F89C32DBB2022B09D061
:10589000032B18D0FFF7AFFC29462046FFF717FA75
:1058A000032038BD5DB145602946FFF709FA20465F
:1058B000FFF776FD032384F89C32002038BDFFF704
:1058C0006FFD002038BD7DB141688D4218D0C9B24E
:1058D000FFF7FDF9656029462046FFF7F1F92046FC
:1058E000FFF75EFD002038BD022380F89C32456042
:1058F0002946FFF7ECF92046FFF752FD002038BD9E
:10590000FFF74EFD002038BD08B54B88012B02D0B3
:10591000FFF771FC08BDC0F8A032FFF741FD08BDDC
:1059200008B590F89C32013B022B09D84B88012B1B
:1059300000D008BD0023C0F8A032FFF731FD08BD3C
:10594000FFF759FCF5E708B50B7803F06003202B4F
:1059500006D0402B04D043B1FFF74DFC002008BD1A
:10596000D0F8B4329B68984708BD4B78092B21D8F2
:10597000DFE803F0141C201820090520100DFFF7A4
:105980006CFE002008BDFFF74DFF002008BDFFF7AB
:1059900071FF08BDFFF7C1FC002008BDFFF7DDFC6B
:1059A000002008BDFFF7B0FF002008BDFFF7B8FFDB
:1059B000002008BDFFF71FFC002008BD38B50446D5
:1059C00000F2A6252846FFF74BFA0123C4F89432CB
:1059D000B4F8AC32C4F8983294F8A61201F01F0360
:1059E000012B0DD03BB1022B0FD001F080012046DE
:1059F000FFF7FBFB38BD29462046FFF7A4FF38BD63
:105A000029462046FFF7D6FC38BD29462046FFF739
:105A100008FD38BD08B500F2C441D0F80805FFF70D
:105A2000CDFF08BD08B5D0F8C402FDF770FE08BD73
:105A3000D0F8BC229AB108B5037C3BB14023D2F820
:105A400004220121FFF7EEFF002008BD4FF4007390
:105A5000D2F804220121FFF7E5FF002008BD032052
:105A600070470000F0B591B004460F46184D01464E
:105A70002846FFF7DFF82846FFF7DAFF40263246D0
:105A800000216846FAF7B0FC3D782A462146684670
:105A9000FAF710FC2A4621460E48FAF70BFC684636
:105AA000FAF74EFD07460DEB00020B4B03CB4DF80A
:105AB000070051601B8813812A4600212046FAF70F
:105AC00093FC31466846FFF7C9FB002011B0F0BDDA
:105AD000000A0020840100209867000810B51346D2
:105AE0000322C0F89422C0F85831C0F85C310A464D
:105AF0000021FFF797FF10BD70B582B0D0F8BC62EF
